:020000040020DA
:10200000B85A0020392820003B7420003974200081
:102010003974200039742000397420000000000059
:10202000000000000000000000000000DF7A200037
:102030003974200000000000FD7A2000A174200007
:10204000B3742000B9742000BF742000C574200050
:1020500000000000A7742000AD7420003974200037
:1020600039742000000000000000000000000000A3
:102070000000000000000000397420000000000093
:1020800000000000000000003974200039742000B6
:10209000397420003974200039742000397420000C
:1020A00039742000397420003974200039742000FC
:1020B00039742000397420003974200039742000EC
:1020C00039742000397420003974200039742000DC
:1020D0003974200000000000000000000000000033
:1020E00000000000000000000000000000000000F0
:1020F00000000000000000006D3E20007D3E20003A
:1021000000000000000000000000000000000000CF
:1021100000000000000000000000000000000000BF
:1021200000000000000000000000000000000000AF
:10213000000000000000000000000000000000009F
:10214000000000000000000000000000000000008F
:10215000000000000000000000000000000000007F
:10216000000000000000000000000000000000006F
:10217000000000000000000000000000000000005F
:10218000000000000000000000000000000000004F
:10219000000000000000000000000000000000003F
:1021A000000000000000000000000000000000002F
:1021B000000000000000000000000000000000001F
:1021C000000000000000000000000000000000000F
:1021D00000000000000000000000000000000000FF
:1021E00000000000000000000000000000000000EF
:1021F00000000000000000000000000000000000DF
:1022000000000000000000000000000000000000CE
:1022100000000000000000000000000000000000BE
:1022200000000000000000000000000000000000AE
:10223000000000000000000000000000000000009E
:10224000000000000000000000000000000000008E
:10225000000000000000000000000000000000007E
:10226000000000000000000000000000000000006E
:1022700039742000513D2000753D200005342000B8
:10228000DD3F2000192F20003974200000000000DD
:102290002DE9F04F832987B0824602D1604805F0CE
:1022A000D8FBBAF8003033B14F2B2BD000230320DA
:1022B000AAF8003023E05B4B20219B6880209847E0
:1022C000594B1421DC6A0120A047022802D157484B
:1022D00005F01CF907210620A047022802D1544826
:1022E00005F014F9534A92214D4802F087FF5248F5
:1022F000402105F065F94F230120AAF8003007B00E
:10230000BDE8F08F4C4805F064F90028EFD04B4B46
:1023100001205B689847434B06465B68202098473E
:1023200004F0CAFA0022464B04F056FC04460D465F
:10233000304604F0C1FA22462B4604F04DFC002240
:10234000404B04F06BF92EA3D3E9002304F01AFBF1
:102350002BA3D3E9002304F03FFC04F0D3F82AA315
:10236000D3E9002304F038FC29A3D3E9002304F0C7
:1023700057F902460B460020324904F02DFC26A3F3
:10238000D3E9002304F04AF906460F4620462946C1
:1023900004F068F8804689463046394604F062F811
:1023A00004F0A0FD49468346404604F09BFD5A4692
:1023B0000146254801F060FE9F238DF80430D923A3
:1023C000102102A88DF80530CDE90245CDE904675A
:1023D00003F0CEF801A9124805F03DFB1B4A136833
:1023E000002B84DD013B1360002B80D1022000F024
:1023F00019FB012000F016FB79E700BFAFF3008066
:1024000000000000006AF84000000000009AB040A0
:1024100083DBB5DCE1796B3F666666666612714008
:10242000184B0020BC7F200044802000FD8320004A
:1024300016842000A8812000084B0020FC8020008A
:10244000000024400000F03F2D842000344B002089
:102450002DE9F04FB1F5801F85B006460F460B46BB
:102460005ADA024621F00044224300F0F8800029A5
:10247000C0F27A810022D64B04F084FA0B46D54A8A
:10248000064693420F466FF0350C4ADCC3F3130542
:1024900005F5152E0EF6647E0EF4801E8EF07F522A
:1024A00082F440121C1542EA0507A4F2FF3464448A
:1024B0000022C94B3046394604EB1E5404F0AEF8F6
:1024C000AB1CC3F31303022B82468B464FF0000272
:1024D00030DC002304F0BEFC002800F0C980002C92
:1024E00000F04B81204604F0E7F9A5A3D3E90023CF
:1024F00006460F4604F046FAA3A3D3E90023044698
:102500000D463046394604F03DFA02460B46204659
:10251000294604F085F80AE0AE4A4FF0000C9342D9
:10252000B4DD32463B463046394604F079F805B012
:10253000BDE8F08F4FF0804304F072F802460B467E
:102540005046594604F048FB064620460F4604F024
:10255000B3F93246CDE900013B4630463946CDE974
:10256000026704F00FFA02460B468046894604F0E3
:1025700009FA87A3D3E9002306460F4604F002FABE
:1025800085A3D3E9002304F04BF832463B4604F020
:10259000F9F983A3D3E9002304F042F832463B461D
:1025A00004F0F0F980A3D3E9002304F039F842469F
:1025B0004B4604F0E7F97EA3D3E900238046894621
:1025C0003046394604F0DEF97BA3D3E9002304F05A
:1025D00027F832463B4604F0D5F979A3D3E9002326
:1025E00004F01EF832463B4604F0CCF90B46024696
:1025F0004946404604F014F8A5F5C223C5F5D72591
:10260000A3F27A4351351D43002D8046894656DD9D
:102610000022724B5046594604F0B4F952465B46CC
:1026200004F0B0F906460F46002C68D132463B460E
:102630004046494603F0F4FFDDE9022304F0A2F925
:1026400002460B463046394603F0E8FF02460B4689
:102650005046594603F0E2FF05B0BDE8F08F002276
:10266000002300205E4904F0B7FA05B0BDE8F08F02
:1026700055A3D3E900235046594604F083F9024696
:102680000B460020554903F0C9FF524606460F4647
:102690005B465046594604F075F902460B463046F3
:1026A000394604F06FF906460F46002C40F09A8038
:1026B00002460B465046594603F0B0FF37E7002C60
:1026C00000F0A4802EA3D3E90023DDE9000104F08B
:1026D00059F942464B4604460D465046594603F0CA
:1026E0009DFFDDE9022304F04DF927A3D3E9002380
:1026F00006460F46DDE9000104F044F921E020A37D
:10270000D3E90023DDE9000104F03CF932463B4601
:1027100004460D464046494603F082FFDDE90223A8
:1027200004F030F918A3D3E9002380468946DDE997
:10273000000104F027F902460B464046494603F0E3
:102740006FFF02460B463046394603F067FF52469C
:102750005B4603F063FF02460B462046294603F022
:102760005DFF05B0BDE8F08F02460B4603F056FF53
:102770000022002304F030FAD9E600200021D6E63A
:102780000000E0FE422EE63F763C7935EF39EA3D27
:1027900044523EDF12F1C23FDE03CB966446C73F90
:1027A000599322942449D23F935555555555E53FA9
:1027B0009FC678D0099AC33FAF788E1DC571CC3FB4
:1027C00004FA97999999D93F555555555555D53F7F
:1027D00000005043FFFFEF7F0000F03F0000E03FAC
:1027E000000050C3204604F067F80FA3D3E900238C
:1027F0008046894604F0C6F80DA3D3E900230446B9
:102800000D464046494604F0BDF89AE702460B469D
:102810005046594603F002FFDDE9022304F0B2F806
:1028200014E700BFAFF300800000E0FE422EE63F59
:10283000763C7935EF39EA3DFF22482408B5084B4C
:1028400008481A60084AE369121A08499847084874
:10285000084AA369121A0021984700F00DF8FEE714
:10286000B4200D4040400020294500206C84200009
:1028700030450020B552002073B500F09BFC00F0FD
:1028800055FD00F0B1FC00F0B5FA01F095FB04F045
:10289000ABFE00F043FD00F0B3F8012004F0D0FDE2
:1028A00002F064F900F072FC002000F08DFB0120C2
:1028B00000F08AFB4049002000F052FC02F09CFA34
:1028C00062B6042004F0BCFD3C4804F01FFE3C4806
:1028D00004F01CFE00F030FA002002F03BFB01F097
:1028E0005DFA0021374802F0CFF901F0AFFF04F0A4
:1028F000D5FD00F0ABFD00F0C7FD02F0A1FE082100
:10290000684601F07FFB9DF806309DF807502E4C7D
:1029100045EA0325BDF806302C48238001F0ACFBC6
:102920002B4E21782B4801F0A7FB61782A4801F053
:10293000A3FBF46A4AF6CD310220A04729460320C2
:10294000A0471A210120A04708226946736B0B207B
:102950009847224801F090FB214B186804F0D6FDFF
:10296000204801F089FB204B186804F0CFFD1F4878
:1029700001F082FB1E4B186804F0C8FD00211D48C1
:1029800002F082F91C4B01219B688120984704F0DA
:1029900016FE1A4804F009FE00F0FEFB022004F0C7
:1029A0004FFD00F0FFFB02F0F9F810F0FF0FF8D137
:1029B00001F098FAF5E700BFB14D2000BE8120007C
:1029C000DA812000A8440020AC520020FF812000C2
:1029D000448020001D8220002382200029822000C4
:1029E0003081200030822000488120003782200082
:1029F00064812000C8440020CC7F2000A0812000FA
:102A000008B500F03FF90022014B1A7008BD00BF65
:102A100030510020024A13781843107000F056B964
:102A200030510020034A137823EA0000107000F0B0
:102A30004DB900BF3051002008B50B4B1B78034245
:102A400003D0202804D004280CD04FF0004008BD4B
:102A50000520064B80211A7800F092FC20EAE070F5
:102A600000B208BD0220F4E73251002031510020AD
:102A7000802810B50C4605D0B0F5807F27D04FF0E8
:102A8000004010BD8B1E222BF9D8E34317490A687A
:102A90001A400A60164A11680B401360A20604D55A
:102AA00001220521002000F04FFC630704D501221C
:102AB0000221002000F048FC00F05AFC30220D4BAF
:102AC00000201A700C4A13781C43147010BDCCB24D
:102AD000102C204602D004D8002CD0D1054B1C70FD
:102AE00010BD202CFAD0302CF8D0C8E720940D402F
:102AF00000940D40315100203251002018B10128BE
:102B000004D000207047034B18687047024B1878B8
:102B1000704700BF20900D403351002010B5094A86
:102B20000020137801331370074B197802F084F8F2
:102B3000BDE8104005490023054A0968054801F031
:102B4000BBBE00BF33510020AE52002068450020BC
:102B50001D2B200048450020812808B52BD0B0F55A
:102B6000807F3AD0802824D101F0F8FF1C4B1D4A09
:102B700018701368032123F00803136052F8203CF7
:102B8000002023F0080342F8203C52F81C3C23F0BC
:102B9000080342F81C3C52F8183C43F0080342F882
:102BA000183C042200F0D0FB032200210E4800F064
:102BB0006DFB012108E00D4B0D481A6831B142F060
:102BC00008021A6001230360084608BD22F00802CB
:102BD0001A600123C0F88030F6E7064B1960E8E779
:102BE000AE52002020940D40F92B200010940D408F
:102BF00000E100E06845002008B50F4804F0FDFC46
:102C0000C8B108210C4804F0F1FC0C4B196849B11B
:102C100000220B4B1A700B4B1B6843B90A4A0B4836
:102C200001F04AFEBDE80840094802F063B90748D0
:102C300001F04CFEF6E708BD404500206845002045
:102C40003351002020900D401D2B200048450020CE
:102C5000CC7F2000084A136823F00403136052F865
:102C6000203C43F0040342F8203C0022034B1A604E
:102C70000122034B1A70704720C40D4010C00D4054
:102C8000345100200D4A0E49136823F0C00313602D
:102C900052F8203C43F0C00342F8203C0022094B8C
:102CA0001A600B6823F010030B6051F8203C43F0CE
:102CB000100341F8203C044B1A60704720A40D40DB
:102CC00020C40D4000A30D4040C00D4010F0020292
:102CD00018BFFF22084B1A6010F0040218BFFF2231
:102CE000064B10F001001A6018BFFF22044B14BFFE
:102CF0001A601860704700BF00A20D4000A10D408F
:102D000040C00D40044B1868C0F30720030904BFFE
:102D10001030C0B2704700BF1C300D40054B186822
:102D2000C0F3C21001289ABFC0F1020040034FF463
:102D30000040704714300D402DE9F047482588B019
:102D4000FFF7E0FF164B07461C68AB6898476B68B7
:102D5000804698470546FFF7E1FF064600F07EFAF9
:102D6000814600F087FA824600F034FAB60A04F091
:102D70000103AD0AC4F3400406900393CDF814A0F8
:102D8000CDF8109002940196009507F00F03C7F359
:102D900007124146034801F06FF908B0BDE8F0871B
:102DA0001C300D405A822000F8B500F077F80F4B28
:102DB0000024D3E900673A46B04238BF7A1C154672
:102DC0000443C3E900450A49D1E90023921B63EBA0
:102DD000070312196B41C1E9002301F027FE18B166
:102DE000BDE8F84001F0A6BDF8BD00BF38450020A1
:102DF00030450020E0210D4B0D4A5A600D4A82F803
:102E00002310002207219A6019600B490B6843F0D8
:102E100001030B60094B1A60042243F80C2C0122B9
:102E200043F8082C0F22DA62704700BF10E000E080
:102E300047E8010000ED00E008200D400C000340D1
:102E4000034BD3E90023100A40EA0360704700BF38
:102E500038450020054B18601C3B1A6842F00102FF
:102E60001A601A68D207FCD4704700BF28000340DC
:102E700010B5064C236823F001032360FFF794FF8D
:102E8000236843F00103236010BD00BF10E000E0A1
:102E9000014B1868704700BF6C450020064B18684E
:102EA0005A6808331B681B0443EA0223034A03439E
:102EB000106843EA0060704740500D404C500D4090
:102EC000014608B5104A1368DB07FCD572B6FFF758
:102ED000E5FF0B1A062BD8BFC11D0C4B0A0E1A605A
:102EE000C1F3074243F8042CC1F3072243F8082C2E
:102EF000CAB243F80C2C62B64FF40032044B19608E
:102F0000044B1A6108BD00BF50500D404C500D409D
:102F10006C45002000E100E008B500F0CBFF002286
:102F2000064B1A604FF40032054BC3F89021C3F8EA
:102F30009020BDE8084001F0DDBE00BF6C450020D8
:102F400000E100E0064B1B681B075FBF054B1868DC
:102F500080F00800C0F3C00048BF0020704700BFE9
:102F600018C0004018D000402C23154A70B503FB50
:102F700000234FF6BF72DC680546236C626413F0D1
:102F800050021BD113F4D06F0BD04FF44073236366
:102F9000FF236360E36AE262E362236B43F00103B1
:102FA000236370BD56F8253033B12068C0B298470E
:102FB000A369DB06F6D570BD2368F9E7014EF7E794
:102FC000DC7F20007045002001282DE9F74F0646E0
:102FD00000F2B4802C2545435A4F7C1994F9208087
:102FE000B8F1000FC0F2AA8094F92290B9F1000F55
:102FF000C0F2A480544800F0CFFF544A79591368B6
:10300000E5680B4313605368616894F921A00B4392
:1030100053609368A1685FFA89FB0B4393600023B8
:10302000C5F8C83F23690AEBC8021A6094F9233037
:10303000227D00939DF8003058461946019300F018
:103040008DF9019B08221946584600F07DF90123AD
:103050003F494FEA0939009A59F8010003FA02F290
:10306000024349F801204FEA083858F8010003FAF2
:103070000AF2024348F801205022AA63AA6B94F98D
:10308000240042F4D062AA6302226A634FF44072C1
:103090002A63A26900286A62E269AA624FF070029C
:1030A000EA620D4614DB94F925102A4A41EAC0046D
:1030B0001460020354598B4023435351C9B2002278
:1030C000C0B200F041F9244A136843F4004313608E
:1030D0002C2303FB067393F92640002C1BDB93F98A
:1030E00027A05FFA84F85FFA8AF901224946404630
:1030F00000F034F901232403625903FA0AF313435D
:10310000635108224946404600F01EF9124A1368EE
:1031100043F4804313602C2303FB0676F268136BA1
:1031200043F001031363012296F82830590903F094
:103130001F0302FA03F3094A42F8213003B0BDE845
:10314000F08F00BFDC7F2000452F200028200D409D
:1031500020940D4004410D4030D0004000E100E0DB
:1031600001289CBF014B43F8201070477045002098
:10317000012808D82C22044B02FB0030C3689A694E
:103180009206FCD419607047DC7F20000022014BBE
:103190001A60704700500D400822014B1A607047BA
:1031A00000500D40A022024B1A6050221A60704756
:1031B00000500D40014B024A9A60704700ED00E05C
:1031C00000202000024B1868C0F38150704700BFF8
:1031D00004200D4008B5FFF7F5FF024B53F820001F
:1031E00008BD00BF3480200038B5164D164C2B6842
:1031F000012223F040032B602368062123F04003C3
:103200002360032000F0A0F82B68012223F0800344
:103210002B602368072123F080032360032000F044
:1032200093F80A4A0A4B0B491A600B4A1346106876
:103230000842FCD11A685101FCD41A685201FCD52D
:1032400038BD00BF20C40D4000C40D400101020084
:1032500000200D400000010104200D40034B0448F4
:103260001B6803F007031841704700BF04200D409E
:103270000048E801034B04481B68C3F302231841CC
:10328000704700BF04200D400048E801024B02EBEC
:10329000C10243F82200704778450020F8B5074680
:1032A0000E460024084D05EB411547FA04F3DB07F1
:1032B000E1B204D555F824300BB1304698470134BB
:1032C000082CF2D1F8BD00BF784500202DE9F04769
:1032D00080464FEA0837DFF8409007F1804505F552
:1032E000592500F0E7FDD5F8186457F809404FEA72
:1032F000C80A24FA0AF446EA0400E4B24146C0B21D
:10330000F6B204FA0AF4FFF7C9FFC5F81C6447F8DF
:103310000940BDE8F08700BF18970D4080220021CA
:10332000014804F03BB800BF78450020034A044B35
:103330001A60044B803A1A60704700BF80400D400D
:10334000F8450020FC450020034B01EBC0011B6841
:1033500043F82120704700BFF8450020034B01EBE4
:10336000C0011B6843F82120704700BFFC450020C6
:10337000024A136843F030031360704700700D4039
:103380000E2870B50BD1154B154E1C6844F0020584
:103390001D60356825F03F0343F001033360114E93
:1033A000336823F0FF031A43114301430E4A31608F
:1033B00013681B06FCD50D4B0D4A1B6812680E28BE
:1033C00003F0FC0343EA022308BF054A1BB204BF13
:1033D0001560024A184608BF146070BD34000144ED
:1033E000F486084008700D4000700D400C700D40D0
:1033F00010700D40024B1868B0FA80F04009704719
:1034000000B708404FF4004210B5064B064CC3F815
:103410009021C3F89020206818B101F04DFC0023E2
:10342000236010BD00E100E000460020064A13685A
:1034300043F002031360536843F002035360936840
:1034400043F002039360704748200D4007B50C48D5
:1034500000F0A2FDFFF7EAFF0A4B1A6842F00202F1
:103460001A6000220192019A0F2A06DD1A6822F0E2
:1034700002021A6003B05DF804FB019A0132F1E721
:10348000F533200054200D40064A136823F0020350
:103490001360536823F002035360936823F0020320
:1034A0009360704748200D40084B93F90020002A94
:1034B00009DBED21064A11601160E32111601A78E1
:1034C00062F07F021A700120704700BF3751002060
:1034D000388808400B4B1A689207FCD41B685B06BF
:1034E0005FBFED22084B1A601A60084B1B6813B1CE
:1034F000EF22054B1A60064A0120137803F07F0380
:10350000137070474C860840388808402C86084065
:1035100037510020A0F10B01CBB20F2B10B50446A0
:1035200013D80B4B1B6813F03F0302D0FFF7D2FFF9
:10353000012301EB8101074A0B3111600BB1FFF749
:10354000B3FF054B60B21C7010BD4FF0FF3010BDD3
:10355000488608403C8608402645002008B50B4BAD
:103560001B6899060FD1FFF79FFF012308490A68DE
:10357000D207FCD5074A1168C1F300110BB1FFF760
:10358000A9FF084608BD0023F0E700BF48860840B1
:10359000648608404C860840044B186800F02200FE
:1035A000A0F1200358425841704700BF4C860840A4
:1035B000024B186800F04000704700BF4C8608407E
:1035C00010B50C46002900F08680102800F2858096
:1035D000DFE800F009101B22243B44575C7276831D
:1035E000837B7D547F003E4B1B68003318BF012353
:1035F000236024E005223B4B1B6803F07F030B3B59
:1036000093FBF2F30B33DBB2F2E7374B1A68043B60
:103610001B6843EA0223EBE7344BF7E700230B6018
:10362000334B344A1B6803F001030B6012689006A9
:1036300044BF43F002030B602F4B1B780BB90020F3
:1036400010BD0B6843F00403D2E700202B4B086049
:103650001B78002BF3D001230B6010BD284B2949A8
:103660001A680023D2B201EBC3000079904202D85D
:1036700051F83330BCE701330E2BF4D16FF0170350
:10368000B6E7214B1B685BB2493BB1E71F4B1B6898
:1036900099060FD1FFF708FF01231D490A68D207D9
:1036A000FCD51C4A1168493949B20BB1FFF712FF2A
:1036B0002160C4E70023F0E7174B93F9003097E748
:1036C000164B1B7803F07F0392E70B2390E71A2336
:1036D0008EE707238CE7022010BD012010BD00BF3C
:1036E0002C8608403C860840CC850840D48508409C
:1036F00000860840248608403651002027450020D7
:10370000408608407C802000588608404886084053
:1037100064860840608608403851002035510020FA
:1037200038B505460C46134A13689B07FCD4124B68
:1037300093F90030002B01DBFFF7B6FEEE220F4BB2
:10374000691E1A601A60A21C43F8102C2144022042
:1037500000F03EFB0A49013C41EA0411022000F05E
:1037600049FB022000F050FB022000F065FB002026
:1037700038BD00BF4C8608403751002038880840CB
:1037800002C001C0F8B5214B93F90030002B2BDBB0
:10379000FFF784FB0446FFF787FEC4F1FF2404F51E
:1037A0007F04F634FFF77AFBC442FBD40126184BA2
:1037B0001B78DBB9174C236899061BD4E92304272F
:1037C000154D2B6023689A0703D4013F17F0FF07BC
:1037D00013D123689B0714D4EE2301212B602B60A7
:1037E0004EB1FFF777FE06E00026E0E7FFF7B6FEF2
:1037F0000028DFD102210846F8BD0620FFF72AFB8A
:10380000E0E7216811F00201FBD1E9E73751002020
:10381000274500204C86084038880840204B187007
:10382000002832D01F4A13681B03FCD51E4B1A68B0
:1038300042F002021A601A6842F001021A601A6825
:103840005007FCD51A6822F001021A601A68510765
:10385000FCD41A6842F002021A601A6842F00102AF
:103860001A601A685207FCD5104A136823F0040343
:103870001360D2F8A83123F00403C2F8A8314FF442
:1038800000520B4BC3F890207047084A136843F06E
:10389000040313604FF40052054B1A61704700BFD8
:1038A0003651002004200D40048808408C860840D2
:1038B00000E100E010B5072861D8DFE800F0040F50
:1038C0001A212541475B012903D1FFF7EDFD0020B7
:1038D00010BD002955D1FFF7FDFDF8E7A1F10B035D
:1038E0000F2B4ED8C8B2FFF715FE0130EFD10320E1
:1038F00010BD89B2244BCAB2090A1A605960E6E7C2
:1039000089B2CAB2214BF7E731F0070339D1204B16
:1039100011F0010F1A68C1F3800014BF42F00102D8
:1039200022F001021A601B4B11F0020F1A6814BF3B
:1039300042F0200222F020021A60FFF76FFFC6E774
:1039400031F001001DD1144B197010BD01F11803A5
:103950001F2B16D80D23114A52F83340D800A1422C
:1039600004DC024412790E4B1A60B0E713F1FF3306
:10397000F2D2ACE7C9B20B4B49311960A7E701207D
:1039800010BD022010BD00BFC8850840D08508408A
:103990000086084024860840274500207C802000BF
:1039A00040860840588608400B280DD1082A0DD1C2
:1039B00061B1074B074A083111F8010D43F8040FB4
:1039C0009342F9D1002070470120704702207047D0
:1039D000A4850840C485084070B52F4D2B6813F0AE
:1039E000400308D02D4E3368DCB21B0605D5ED220E
:1039F0002B4B1A601A60002070BD042CF7D9023CD2
:103A00008C42F4DCE4B2032C2FD0011901390320DD
:103A100000F0E6F9234B611E43EA0111032000F098
:103A2000E9F9032000F0F0F9032000F005FA032083
:103A300000F00EFA0028FAD131681B4B493949B21F
:103A400019703368194E18063370D0D589B2042026
:103A500001F0CCFD3178032001F07F0101F0C6FDBB
:103A6000134B1B7843B1204670BD33680370336835
:103A7000437033688370DFE72B685A06F3D52B68F1
:103A80001B0603D50B4801F017F9ECE7ED22044BB8
:103A90001A601A60E7E700BF4C8608402888084093
:103AA0003888084002C0010C3851002035510020F0
:103AB0003651002080440020F8B5294F3D7815F09C
:103AC00001054BD10124F822264B7F261C605C6047
:103AD0009C60A3F59323A3F514731A600922C3F81D
:103AE0009021152270331A600B2203F59B2303F5F6
:103AF0009E731A604022A3F59B23A3F5F0731A600E
:103B00001A6842F020021A60D52243F81C5CDE627B
:103B1000DA61154B1878FFF7FDFC4FF48042134B28
:103B200002201E60124B1A6100F07AF9114902203E
:103B300000F056F9032000F073F90E49032000F05D
:103B400047F90D4B1878FFF769FE29460B4801F03D
:103B50009BF83B78204623433B70F8BD0020F8BD1E
:103B600037510020A8200D402645002094860840AB
:103B700000E100E028880840365100208044002001
:103B800038B503880446002B34D040F203429342F8
:103B900003D000230380032038BD194B18781A4640
:103BA00028B11B784BB3174B1B78580625D58229B3
:103BB00023D1137873B901F0CBFC01F059FC8021BB
:103BC000FFF70AFF002805DD80B201F011FC0E4B63
:103BD0001B6998470B4B1A7852060BD500221A70B6
:103BE0000A4B1D68FFF776FCFFF766FFAB0601D0B6
:103BF000FFF75AFC40F203432380012038BD00BF89
:103C0000365100203751002064812000488608404A
:103C10000B282DE9F0478A4611D1082A40F081800F
:103C200000297ED0404B414A01F1FF3A53F8041D70
:103C300093420AF8011FF9D10020BDE8F0870C2853
:103C40006CD1042A6DD100296BD0394A39491368E7
:103C5000DFF8EC9023F0070313600B68DFF8E480D3
:103C600043F008030B60D9F80030D8F80040106822
:103C7000DFF8D4C0DFF8D4E020F070001060DCF88A
:103C80000000DEF80050DBB2240243EA0563A4B270
:103C900023430024000400F47F0003432648066801
:103CA000F5B244EA030613682F4623F0070343F0F6
:103CB000010313600B6843F008030B60D9F8003070
:103CC000D8F800101568DBB225F0700545F0100536
:103CD0001560DCF80020DEF80050090289B243EAE2
:103CE000056312040B4302F47F021343026844EAA3
:103CF00003085FFA82F9FFF7D1F8B6EB080667EB25
:103D00000907F90305460D4A0023F00341EA56412D
:103D100003F010F9281ACAF800008DE70120BDE869
:103D2000F0870220BDE8F087C8850840A8850840D4
:103D300010880840048808401C8808400048E801B2
:103D400014880840188808402488084020880840C3
:103D500008B5054B1B7813B9044800F0ADFF0022ED
:103D6000034B1A6008BD00BF36510020804400207C
:103D700034880840064B07481A68042A1FBF0649C2
:103D80000A7842F040020A7000221A6000F094BFE4
:103D90002C880840804400203751002010B5094C81
:103DA00040220021204603F0F9FA0122064B1A6056
:103DB0004FF480425C60054B5A604FF400425A60F9
:103DC00010BD00BF0040002004F00F4000E100E003
:103DD00003289EBF014B000119507047004000208E
:103DE00003289EBF024B03EB00104160704700BFE9
:103DF0000040002003289EBF024B03EB00108160AF
:103E0000704700BF00400020032806D80123034A62
:103E100003FA00F0116808431060704728F00F4063
:103E2000032806D80123034A03FA00F01168084367
:103E30001060704720F00F40032806D80123034A82
:103E400003FA00F0116808431060704714F00F4047
:103E500003289FBF044B03EB0010806800F00700AD
:103E600088BF0020704700BF004000204FF0FF32A5
:103E7000014B1A60704700BF04F50F400122014B4F
:103E80001A6070474CF00F40084B19461A68D00270
:103E9000FCD4074B1A6822F480321A600A68D203F5
:103EA000FCD41A6842F400321A60704704200D40B6
:103EB00000200D4010B5094C226890070DD0084B2A
:103EC0001A4619684901FCD413685B01FCD5FEF75A
:103ED000CFFFFFF7D9FF0023236010BD58200D400E
:103EE00004200D4038B5264B1C6814F03F0414D153
:103EF000244D55F8243023B1984770B10134052C76
:103F0000F7D1214D2B7843B1FEF7C2FF0446FEF7EF
:103F1000C5FF201A092800D90CB930BF38BD1B4B8A
:103F20001A6822F400321A60194A11461068C00259
:103F3000FCD41A6842F480321A600B68DB03FCD5AB
:103F4000FEF7ACFF201A092803D8BDE83840FFF778
:103F50009BBF63280F4C0BD92B78022B08D1236011
:103F600000F060FE30B1FFF78FFF0023236038BD03
:103F70000123F4E7FEF78CFF0028CED1F3E700BF62
:103F800048860840044600203951002000200D409A
:103F900004200D4058200D400023064A52F82310FB
:103FA000814206D011B942F8230070470133052B36
:103FB000F4D17047044600200022054B1A60054AE0
:103FC000136943F0040313610222034B1A70704714
:103FD00058200D4000ED00E0395100204FF48032B0
:103FE00010B5064B064CC3F89021C3F8902020680A
:103FF00018B100F061FE0023236010BD00E100E075
:104000001846002030B5184B1A78431E1AB9174AC3
:104010001278122A06D001F52011154A2731914253
:104020001CD130BD134A12784B2AF4D14A0802F150
:104030002814B4F1281F07D1002301F520112731DE
:104040001044934205DB30BD14F8015D03F8015FB5
:10405000EFE711F80149C4540133F2E711F80109FF
:1040600003F8010FDBE700BF2B0028002A0028001F
:1040700027002800290028000FB407B504AA52F829
:10408000041B0448019200F021F803B05DF804EB32
:1040900004B070479044002070B505460C460A4EA7
:1040A000102C07D874B12B68224668680649BDE811
:1040B000704018472B68102231466868984710B93D
:1040C000103CEDE7204670BD458320002DE9F04F00
:1040D0008046154600268FB00791079B1B78BBB121
:1040E000079F00E027463C4614F8013B0BB1252B07
:1040F000F8D1079B9F4210D0A7EB03094A46D8F896
:1041000000300799D8F80400984728B14FF0FF36DF
:1041100030460FB0BDE8F08F4E443B78002BF7D00F
:104120007B78002BF4D021460024084610F8012BA0
:104130000B462B2A39D02DD8202A39D0232A3AD021
:10414000A2F13107082F3FD84FF0000A0B4611F8B3
:10415000012BA2F13000092830D91A782E2A4FD12C
:1041600059785A1CA1F13000092842D8002711784B
:104170001346A1F13000092802F1010234D91A785E
:104180006C2A40F0AA805A786C2A3CD144F0800412
:1041900002333BE02D2A04D0302AD1D144F0100460
:1041A00001E044F001040146BFE744F00604FAE7E9
:1041B00044F00204F7E744F00804F4E70A2303FBA1
:1041C0000A2AAAF1300AC1E72A2A0AD1D5F800A0A2
:1041D0000346BAF1000F05F10405B8BF44F001042D
:1041E000BBE74FF0000AB8E70A2303FB0717303F8D
:1041F000BDE72A2903D12F6802330435BFE71346F0
:104200004FF0FF37BBE7013344F060041A78642AAB
:1042100000F0908000F28380462A00F0AD806FD8D5
:10422000252A00F0BE8064D8002A3FF471AF013324
:10423000079304F4E063B3F5806F00F0698200F245
:10424000B380B3F5807F00F0F380B3F5407F7FF457
:1042500044AF8B4B14F4804F8A4A18BF1A460DF1B5
:10426000330300211F462868043550EA010E40F050
:104270008982FF1A04BF302203F8012C4FF0780224
:1042800008BF03F1FF3303F8012C4FF0300208BFE1
:10429000012703F8022C23220337BA458CBFAAEB6F
:1042A000070A4FF0000A14F00104A3F1030903F810
:1042B000032C06D151464046FFF7EEFE00287FF45E
:1042C00025AFD8F800303A464946D8F80400984758
:1042D00000287FF41BAF3E4448E2682A96D15A7802
:1042E000682A02D144F0200452E7013344F040042C
:1042F0008CE7412A4CD0452A99D144F4424496E7B0
:10430000582A33D004D8472A91D144F4A1348EE7F7
:10431000612A3AD0632A8AD144F4A06487E76E2ADE
:104320003CD00AD8662A24D029D3672A2AD0692A01
:104330007FF47DAF44F4245479E7732A2BD007D857
:104340006F2A10D0702A7FF472AF44F440746EE785
:10435000752A05D0782A7FF46AAF44F4C85466E71A
:1043600044F4106463E744F4885460E744F4B244CE
:104370005DE744F400745AE744F4844457E744F496
:10438000024454E744F4813451E744F4C1344EE725
:1043900044F4E1344BE744F4806448E744F4E064D7
:1043A00045E744F4C06442E7B3F5C06F34D0B3F5D9
:1043B000E06F00F0F681B3F5A06F7FF48EAEBAF136
:1043C000010F2B688CBF0AF1FF3A4FF0000A14F07E
:1043D000010405F104058DF8203007D1514640460F
:1043E000FFF75AFE00287FF491AE5644D8F800300B
:1043F000012208A9D8F80400984700287FF486AE67
:104400000AF1010734B151464046FFF745FE002846
:104410007FF47CAE3E4460E6D8F8003001221A49B1
:10442000D8F80400984700287FF470AE013654E6AF
:10443000002FACBF24F01004012714F4005306939E
:1044400004F0E00300F0D480402B00F0CA800AD8CA
:10445000002B00F0C980202B18D000220023CDE9CA
:104460000023002320E0602B00F0BE80802BF4D1DD
:10447000073525F0070303F10805D3E9002309E018
:1044800065832000768320009883200095F9002022
:10449000D3170435002A73F10001E0DA524263EBCE
:1044A0004303CDE900230123059304F4C053B3F57E
:1044B000805F00F0C880B3F5C05F00F0EA80B3F51C
:1044C000006F40F00181DDE90023CDE902230DF109
:1044D000360BDDE90223134340F0C9800DF13603AA
:1044E000A3EB0B030293029B41F60802BB4238BFC9
:1044F000FF1A41F2080304EA020228BF00279A4289
:1045000002D1002F08BF012741F60801029B8A4211
:1045100003EB070040F0DC80DDE90023134300F0EB
:10452000D780A24914F4804FA14B4FF0020908BF75
:104530000B46069A72B1059A002A40F0CD8004F02D
:104540000602022A00F0CC80062A9A4A04BF4FF0E5
:104550000109134609EB000292458CBFAAEB020A3F
:104560004FF0000A14F00102009204D1E10640F17C
:10457000BB8057449246B9F1000F09D0D8F80040EB
:104580004A461946D8F80400A04700287FF4BEAD7B
:104590003C46029B1E44102CD8F8003000F2AE803E
:1045A0003CB122468449D8F80400984700287FF49B
:1045B000ADADD8F80030029A5946D8F804004E4400
:1045C000984700287FF4A2AD009B3E44002B00F0EA
:1045D000D08051464046FFF75FFD002800F0C980BB
:1045E00094E5B5F9002053E72A680435D31751E75D
:1045F000402B1FD009D8FBB1202B14D00023002260
:1046000005930023CDE900234FE7602B14D0802BC6
:10461000F4D1073525F0070303F10805D3E900239A
:10462000CDE9002304E02A780023CDE900230435F6
:10463000069B39E72A88F7E72B68002219460435DC
:10464000CDE90012F4E70DF1360BDDE9002352EA63
:1046500003013FF443AF02F0070130310BF8011DB5
:10466000D10841EA4371D8080A460346EFE7DDE97D
:1046700002010A22002302F05DFCDDE90201303272
:104680000BF8012D00230A2202F054FCCDE90201AF
:104690001FE74A4B14F4804F0DF1360B484918BF01
:1046A0001946DDE9002352EA03003FF417AF02F098
:1046B0000F00085C4FEA131E0BF8010D100940EAC9
:1046C000037002467346EEE70DF1360B002309E74F
:1046D0004FF000094B462CE74FF00109394B39E701
:1046E0004FF00109384B35E7514640460593FFF737
:1046F000D3FC059B00283FF43EAF07E510222E496E
:10470000D8F80400984700287FF400AD103C42E739
:10471000D5F800B00435BBF1000F2ED0D94699F87A
:10472000003009F1010233BBA9EB0B09002F02DBBA
:10473000B94528BFB946CA458CBFAAEB090A4FF054
:10474000000A14F0010406D151464046FFF7A4FCCC
:1047500000287FF4DBACD8F800304A465946D8F838
:104760000400984700287FF4D1AC4E44002C7FF41D
:1047700030AF5644B1E49146D1E7DFF850B04FF086
:104780000609D3E700F00F0E12F80EE04FEA111CF5
:1047900003F801ED4FEA101E4EEA017E70466146B5
:1047A00063E52B6804351E6097E400BF8783200013
:1047B0008A8320008F83200055832000658320009A
:1047C000768320008D832000358220009183200095
:1047D000F8B50388064615462BB14A2B17D000239F
:1047E00003800320F8BD164802F042FF044634B9A6
:1047F0000122144B1A704A2333800120F8BDA168AE
:10480000201D02F0DDFE2468F1E7246805E0882918
:10481000F3D10B4802F02CFF0446002CEBD0231DF3
:104820009D42F2D12146064802F02BFF064D6269F7
:104830002F682A60A2690AB1E06990472F60DAE721
:104840001C4600203A510020A847002010B5002443
:10485000054B06481C7002F008FF2146BDE81040D9
:10486000034800F011BA00BF3A5100201C46002056
:104870009844002070B50446E3610B4B049D1B78FF
:104880006561A2616BB1094D094B2E68201D2B603B
:1048900002F096FE2E602146BDE87040054802F009
:1048A00005BFA160F7E700BF3A510020A8470020EC
:1048B000984400201C46002013B5034C2468009443
:1048C000FFF7D8FF02B010BDA847002010B5084B75
:1048D00004461B7843B1043000F0B0F82146BDE82F
:1048E0001040044802F0CDBEC3600361F6E700BF8C
:1048F0003A5100201C46002010B50C4C236813B917
:104900000B4A136010BDFEF79BFA226892E80A007A
:104910000B441B1A92680AB90344F1E792E81200AB
:104920002144091A8B4228BF0B46F3E72446002096
:1049300020460020014800F0BFB900BFA844002075
:104940002DE9F8430388054633B1592B46D000239F
:1049500003800320BDE8F883234A136059232B808A
:104960000120BDE8F88301209B681BB90028F5D021
:104970000B60F3E7DC68A242F5D000B10B609968E8
:104980000029EBD0C86882420ABF89680B4699604B
:10499000F5E78229E2D1144F4FF00009B84600260E
:1049A0003C68002CDAD0204602F027FE98B122465F
:1049B0008821E06800F040F958B9E060A3682EB1A2
:1049C000B360C4F80890FFF797FFE8E7C8F8003035
:1049D000F7E7FFF7AFFF2646A468E2E78729D8D1BB
:1049E000014900200B68C0E72446002010B50446AA
:1049F000FFF7A0FFE3680B4A0BB1136833B90A4B0A
:104A00001B68E36013681460A36004E0A34206D14E
:104A1000054A1268DA60BDE81040FFF76DBF9B6879
:104A2000ECE700BF24460020A8470020024B18688E
:104A3000003018BF012070472446002010B50B4AF3
:104A400004461368834208D183681360FFF754FF5C
:104A50000023A360E36010BD1346002BF8D09A68D2
:104A60009442F9D1A2689A60F0E700BF2446002082
:104A700038B5836804460D469BB10A48046002209D
:104A8000A07304F10C0098470238012801D9832D46
:104A900005D121462046BDE8384000F005B8012385
:104AA000A37338BDA84700202DE9F8431C4F894661
:104AB0003D681C4E2C46D6F80080844204D00CB9C8
:104AC000BDE8F8832468F8E7ACB1A37B63B10023A9
:104AD000A37395B9A3683BB14C4505D034602A4611
:104AE000832104F10C0098473B689C420FD1236856
:104AF0003B60C6F80080BDE8F883AC4204D0224693
:104B00008721284602F06AFD2D68E2E71346002B54
:104B1000EFD01A689442F9D122681A60E9E700BF21
:104B2000AC470020A8470020002370B501261D4691
:104B3000084A1370084A146804B970BDE37B33B1A6
:104B4000A673E573002282212046FFF791FF2468B7
:104B5000F2E700BF3E510020AC470020024B18781E
:104B6000421C1A70704700BF3C5100208A22064B3D
:104B70001A700023054A1370054A1370054A136022
:104B8000054A1360704700BF3C5100203B51002094
:104B90003D510020AC470020A84700202DE9F041FE
:104BA0001B4D2B780BB1FFF7BFFF1A4C22789AB13F
:104BB0000C21194E194F3378013A5943781817F8D8
:104BC000018001334768806803F01F03337022704F
:104BD00090B9134B1E6826B92B7820781844BDE88D
:104BE000F0812B780BB1FFF79FFF30463A464146E4
:104BF00002F0F4FC3668EEE7B8F1810F08BF01233C
:104C00003A4608BF8373414602F0E8FCE4E700BF80
:104C10003E5100203D5100203B51002028460020FD
:104C2000AC470020024A034B10781B7818447047A9
:104C30003D5100203E510020F0B50B4E3378202B23
:104C40000FD00C25094C0A4F24781C4404F01F0493
:104C50006C4301333D19A86039556A6033700020F8
:104C6000F0BD0120F0BD00BF3D5100203B510020B0
:104C70002846002038B5034C256802F0AFFC2560BB
:104C800038BD00BFA847002030B40A4C0A4625684A
:104C90002B4683420CD04BB950B101210560817382
:104CA00020608381812130BCFFF7E4BF1B68F0E7FF
:104CB00030BC7047AC47002038B1837B013B012BEF
:104CC0009FBF0123014AC373137070473E510020F8
:104CD000024610B5064853600468029B1160936059
:104CE000026014B90846FEF7EBF8002010BD00BFC3
:104CF000B047002010B5084C206858B100238168E7
:104D0000236043689847236823B1BDE810401868C2
:104D1000FEF7D6B810BD00BFB047002070B50588BB
:104D20000446672D08D0792D32D06DBBFFF716FFF2
:104D30001A4B18701A4B1D601A4E194D304602F06E
:104D400084FC431C03D167232380012070BD0A2803
:104D50002B6806D07E2BF1DC5A1C2A60124AD054F4
:104D6000ECE75A1C2A6000250F4A2846D5540B4B05
:104D70001978FFF761FF0D4B2A4685211868FFF768
:104D80005BFF38B97923DFE700230380032070BD80
:104D90008529DAD10022024B1A60CDE7B3520020F8
:104DA000B4470020B84700203F510020A84700200A
:104DB0000D2810B5014616D00C4C237853B90C4879
:104DC00002F030FC08B9012323700A48FFF774FF92
:104DD000012010BD0A28F8D1054802F023FC002864
:104DE000F3D00023F0E7002010BD00BFBF5100202A
:104DF000B8470020B844002008B50549054880227E
:104E000002F009FCBDE8084000210348FFF73CBF61
:104E1000C0510020B8470020B84400202DE9F041DF
:104E200004880646772C21D07E2C43D0002C3CD120
:104E3000FFF794FE294D2A4B2A4FDFF8B4801870F3
:104E40002C602B6857F8232032B9274A1370772338
:104E500033800120BDE8F08108F803409368002109
:104E6000802098472B6801332B60EAE700231F4A14
:104E700013601A4A1360194B1B4A1B6812789A4236
:104E800004DC1A4B1B68002BF0D1E0E7184AD2561D
:104E9000002A1EDA134A002052F82320104B1978FA
:104EA000FFF7CAFE50B97E23D2E700230380032018
:104EB000BDE8F0810A4B1B788B42CAD1074B0C49E5
:104EC0001A688B5C03F07F038B54084A1368013324
:104ED0001360024A13680133CCE700BFC4470020C7
:104EE000B45200207044002040520020C0470020EF
:104EF000AF52002010B40A4B0A491A78002393429B
:104F000003DA51F82340A04208D107490748CA5C98
:104F100062F07F02CA5410BCFFF7CEBE0133EEE749
:104F20004052002070440020AF520020C8440020AE
:104F3000064A136843F004031360054B18680433F2
:104F40001B6840EA032080B2704700BF00700D402C
:104F500014700D4010B5174A136823F00C0313604A
:104F60000122154B1A601A68012AFCD10822134B42
:104F700013491A60E32203F505731A601A460B6899
:104F8000DB07FCD50F4C102100232068013900F00D
:104F9000010043EA00034FEA43039BB2F5D1002B23
:104FA000F1D00949180A03F0FE0308600B60EF23F3
:104FB000136010BD00700D40A8200D4024860840ED
:104FC000648608409C86084014700D400378407841
:104FD00040EA0320054B00FA01F1985CC2F1080297
:104FE00000EA21201041C0B2704700BFCB832000EF
:104FF00070B50B4C0023616E0A4A04F13800FFF7CC
:105000005BFCFFF795FF616E0023B0FBF1F5064AEC
:1050100005FB110104F11800BDE87040FFF74CBC1E
:10502000C84700202D50200045502000044B5A6EE8
:10503000196E5200914294BF59665A66FFF7D8BF65
:10504000C847002010B500F083FA00F011FA0023E1
:105050000380044600F050F808B1037B63B9208850
:105060008000023080B200F0C3F9238883B1BDE82C
:105070001040084800F0E6B82388818804EB8302DA
:105080005180C18801339180238002F02BFBE3E73C
:1050900010BD00BFC84700209DF80030012B04D18F
:1050A000024B9A6D5A66FFF7A3BF7047C8470020AE
:1050B000F8B50F4616461D46064C0146064A2046E0
:1050C00000F0AEF8A765E66525660448BDE8F8403F
:1050D00000F00CB8C847002018812000995020002B
:1050E000014802F0C2BA00BF34480020014B1860EA
:1050F000704700BF38480020014802F0B9BA00BF2D
:10510000344800202DE9F04106460C480C4617466D
:1051100002F0AEFA08B9BDE8F0818388A34209D154
:105120008568002DF7D03B4622463146AC46BDE8A7
:10513000F041604702F0D6FAECE700BF34480020A7
:10514000054B10B51B689847044618B181880120AB
:1051500000F04CFA204610BD0C81200038B5064BFB
:1051600005465B6898470446A988012000F03EFA8E
:10517000201C18BF012038BD0C812000014B9B680A
:10518000184700BF0C812000014802F06EBA00BF32
:105190003C48002081800146014802F087BA00BFE8
:1051A0003C4800200146014802F06BBA3C48002010
:1051B00010B50446054802F05BFA00B910BD8388BB
:1051C000A342FBD002F08EFAF7E700BF3C48002074
:1051D00070B504461B200D4600F022FA064902F085
:1051E000B6FC38B1A3691B6823B129462046BDE847
:1051F0007040184770BD00BFAC52002070B5054626
:105200000C461646044A00F00BF8AE612046BDE895
:105210007040024902F00CBC20812000D4832000A1
:1052200070B505460C461646044A00F05FF86E61FC
:105230002046BDE87040024902F0FABB28812000F8
:10524000DA83200010B5044604491A2000F0DCF986
:105250002046BDE8104002F036BC00BFAC52002032
:10526000F8B506460A480D46174602F001FA04460C
:1052700030B93A4629463046BDE8F84002F02ABC2B
:10528000A3680BB128469847204602F02BFAEEE7B8
:105290004048002038B5FFF753FF0546094802F0A3
:1052A000E7F9044628B95DB12846BDE8384002F068
:1052B0000CBC636803B19847204602F013FAF0E78C
:1052C00038BD00BF4048002010B50446FFF746FF38
:1052D00038B100F0A9F8034B034821469B68984772
:1052E000012010BD908120006152200070B505465C
:1052F0000C461646FFF74EFF2E612046BDE8704073
:10530000014902F095BB00BFE383200008B50448C3
:1053100002F0EBF9BDE80840024802F0E6B900BF30
:10532000E4440020D844002038B50E4802F0EDF9DE
:10533000054650B10C4802F0E8F90446286030B93F
:105340002946084802F0F5F92546284638BD00F000
:1053500097F804F1B601A4F8800004F1820000F08F
:105360001DF9F2E7D8440020E444002010B50146BE
:105370000446074802F0F3F948B12168054802F0F5
:10538000D8F92146BDE81040014802F0D2B910BD5D
:10539000D8440020E444002010B5014604460948E2
:1053A00002F0DDF968B12468B4F88010204600F0FE
:1053B000DFF804F1B60104F18200BDE8104000F00E
:1053C00001B910BDD844002010B507490B888342AD
:1053D00008DB064C80B222880244181A088022801A
:1053E000012010BD002010BD285100202A510020AE
:1053F000014B1880704700BF2851002000487047BB
:1054000064480020014B1888704700BF28510020D5
:10541000034A044B10781B781844C0B2704700BF91
:10542000515200202A5100202DE9F0410C4D2A88CC
:105430006AB100240B4BDFF834801E880A4B1F78BA
:1054400021B2B14204F1010403DB00232B80BDE84B
:10545000F081FFF7DDFF41440B5CCB55F0E700BF67
:105460002A51002028510020515200206448002079
:1054700008B5FFF7CDFF014B184408BD6448002074
:10548000F8B50C4B05461E780B4B1F88F419802C81
:105490000DDC3246094901F00BFFFFF7E9FF354407
:1054A00001463A46284601F003FF2046F8BD002495
:1054B000FBE700BF51520020285100206448002023
:1054C00008B5FFF7A5FF024B1B88184480B208BD42
:1054D0002851002010B50146FFF7F2FF4318802B3A
:1054E00010DC0138084B00B2002805DA074B1878A9
:1054F00008441870012010BD1C5C1A18013854545F
:1055000000B2F1E7002010BD644800205152002095
:1055100038B50C4D0C4C342200210C4801F03EFFF4
:105520002946204602F010FB2946A01C02F00CFB85
:105530002946201D02F008FB2946A01DBDE8384081
:1055400002F002BBBC812000705200207852002083
:105550000023044A1380044A1380044A1370FFF79F
:10556000D7BF00BF2A5100202851002051520020EF
:1055700038B50C460546FFF7EBFF802C28BF80248A
:1055800029462246034801F093FE034B20461C8027
:1055900038BD00BF644800202851002010B5074BDB
:1055A00003F1340253F8044B934240F8044BF9D111
:1055B000034A13680B6053684B6010BD785200209B
:1055C0007052002010B5074B00F1340250F8044B24
:1055D000904243F8044BF9D10B68034A13604B68BF
:1055E000536010BD7852002070520020024B23F807
:1055F00010100120704700BF78520020014B33F893
:10560000100070477852002008B5044B1A3803EB9D
:10561000400002F099FA012008BD00BF705200203E
:10562000024B1A3803EB4000704700BF7052002055
:105630000149024802F08BBABC812000725200205E
:10564000084B10B51B689847074B5B689847074B9A
:105650005B689847064B5B689847BDE81040054B70
:105660005B681847448020006481200090812000FE
:1056700048812000308120002DE9F041FDF7E0FB5A
:10568000002504464FF00C080F4F08FB05761A2042
:10569000FFF7C6FF314602F05AFA88B10A20FFF739
:1056A000ADFF337A834202D00020BDE8F0817068FC
:1056B000201AB0F5206F8CBF00200120BDE8F081DA
:1056C0000135102DE1D1EFE7E448002070B5184E08
:1056D000002435461A20FFF7A3FF0C2101FB0461CB
:1056E00002F035FA631C10B9102B1C46F2D10C22C3
:1056F000013B02FB0352A2F10C067BB90A20FFF723
:105700007DFF2872FDF79CFB68601A20FFF788FF79
:10571000BDE870400146064802F016BA344603CC94
:10572000106051602068013B90603246E3E700BFA3
:10573000E448002030B591B0054600F093F84FF6EC
:10574000FF73984204D14FF0FF34204611B030BDB2
:1057500040220021684601F021FE404B1A782AB908
:1057600001221A70FFF7E4FB3D4B18701420FFF77D
:1057700045FF8DF810001320FFF740FF8DF8120051
:10578000FFF756FF0446002849D000238DF8133058
:105790008DF81530002301248DF814308DF8184051
:1057A0004DB10A20FFF72AFF002840D00A20FFF75A
:1057B00025FF8DF81A0002248DF8194000F052F8E8
:1057C000ADF81C00FFF734FF00283DD0FF238DF813
:1057D00017408DF800308DF8013000F043F8ADF837
:1057E0001E001A20FFF71CFF014602A802F0ACF9C8
:1057F000FFF73EFE0E90FFF705FE0F90684602F0A1
:10580000A1FA0446002DA0D0FFF764FE00289AD02C
:10581000FFF7F4FD0146684602F0DCFA95E70B203D
:10582000FFF7ECFE8DF815408DF81300B2E70C4B36
:105830001A7802B91C7019780A204A1C1A708DF85F
:105840001A10FFF7D3FEB6E71B20FFF7E9FE01466B
:10585000684602F079F98DF81740BEE752520020F1
:1058600053520020014B1888704700BF2445002088
:105870002DE9F041012986B006460F46144603DCA7
:10588000002006B0BDE8F08103A902F0ECFA03ABFA
:1058900003CB1B88206123839DF811306161002BAD
:1058A00044D0B51C02AA01A903A802F0ADF99DF8E5
:1058B0001380B8F1000F4CD0029B23B16A7815F821
:1058C000023B03EB0223B8F1020FA38332D132492A
:1058D000204602F039F96B78237015F8023B6370AB
:1058E0009DF81580B8F1000F4DD0019B002B37D0EB
:1058F0006A7815F8023B03EB0223029A9BB2E3831A
:1059000002B9A383B8F1020F2DD1234904F1080095
:1059100002F01AF96B78237215F8023B6372A81B28
:105920003B1A8742E363A563AADBAAE7B378F51CB9
:10593000A376B7E7B8F1030FD2D105F108021346F9
:10594000611E13F8010DAB4201F8010FF9D11546A4
:10595000C6E71149204602F0F7F8A4F81C80BFE71B
:10596000A38BE383CEE7B8F1030FD8D105F108028A
:10597000134604F1080113F8010D9D4201F8010BD3
:10598000F9D11546CBE7044904F1080002F0DCF830
:10599000A4F81E80C3E700BFBC812000014BDB6878
:1059A000184700BF90812000014B5B69184700BF7A
:1059B00064812000014B9B69184700BF648120006F
:1059C000024BD86900B10047704700BF64812000D6
:1059D00013B5044668B1006B01F04AFE024640B1BF
:1059E0002146054B0548DB68019302B0BDE8104035
:1059F000184702B010BD00BF64812000BF7E2000A8
:105A000070B590F829500F4B042D28BF04250124B0
:105A1000DB6906469847AC40651E002814BF044663
:105A200001246C4305D0FFF783FAB0FBF4F303FBCA
:105A300014043346214606F10800034ABDE87040CD
:105A4000FEF73ABF64812000D15920002DE9F041D2
:105A500007461B208846FFF7E3FD494B05461A78A9
:105A6000484C22B901221A70FFF762FA208023887D
:105A70000BB90123238021880A204B1C2380FFF7C8
:105A8000B5FD414801F0F4FD0446002848D13F48E7
:105A900001F03BFE0446002868D02946201D02F094
:105AA00053F8002304F12C00206384F8283084F894
:105AB0002930E36201F0D9FD2146334801F0F6FDBB
:105AC000206B01F008FE072850DC314801F01DFE74
:105AD000054600283ED02F4801F017FEA860A8B365
:105AE000FFF722FC686068B30920AE68FFF786FD07
:105AF00000BB0823337286E880010D20FFF77EFD8E
:105B000001282946206B1AD101F0DDFD206B01F040
:105B1000AFFD854232D12046BDE8F041FFF770BFAE
:105B20002946201D02F013F80028C9D1204601F0B3
:105B3000D9FDA9E70920FFF761FD3072DBE701F02D
:105B4000B5FDE3E7A968134801F0F3FD29461048C5
:105B500001F0EFFD206B01F0BEFD38B921460A4887
:105B600001F08FFD2146094801F0E3FD414638462A
:105B7000BDE8F0410123042202F095B9BDE8F081AF
:105B8000545200202C510020044A0020FC440020E4
:105B900008450020F044002008B5054801F0A5FDA7
:105BA000044801F0A2FDBDE80840034801F09DBD96
:105BB00008450020F0440020FC4400202DE9F04777
:105BC0000D4614468B68804693E8C000106B92F82F
:105BD000289001F056FD6868FFF7C8FBA9681448D3
:105BE00001F0A7FD2946134801F0A3FD206B01F049
:105BF0003FFD78B10023204684F8283084F829300E
:105C0000FFF7FEFE4B46424639463046BDE8F047B8
:105C100002F049B904F10800FEF758FE2146064893
:105C200001F02FFD2146054801F083FDEAE700BFA2
:105C3000F044002008450020044A0020FC440020D5
:105C400013B50024094B1C70094B1C80FDF726F985
:105C5000009400F58051074B01220748FFF738F800
:105C60000122064B1A7002B010BD00BF6C5200201A
:105C70002E51002049612000F44A00206752002084
:105C8000074B82B01B784BB1064B1A7832B9012210
:105C90001A70054B1B6A019302B0184702B0704797
:105CA000675200206C52002044802000094B82B0D3
:105CB0001B786BB1084B1A7852B1084A127802F07F
:105CC000FF012AB91970064B5B6A019302B01847AD
:105CD00002B07047675200206C52002068520020CA
:105CE0004480200008B5FFF7E1FF0022014B1A6055
:105CF00008BD00BF044B0020044B1B7823B9044BA4
:105D00001B680BB9FFF7D2BF704700BF6E5200206F
:105D1000044B00200022094B82B01A70084BC2B21B
:105D20001A70084A084B28B101211B6A11700193AF
:105D300002B0184710705B6AF9E700BF6752002095
:105D4000685200206C5200204480200037B50B4B75
:105D50001A7802F0FF056AB901241C70084B1D7007
:105D6000FDF79CF8009500F58051064B2246064849
:105D7000FEF7AEFF012003B030BD00BF6752002028
:105D80006852002049612000F44A002037B50B4BCF
:105D900005461B780C4673B1FDF780F8231A022BD9
:105DA0004FF0000348BF841C00930122044B21469E
:105DB0002846FEF78DFF03B030BD00BF67520020BC
:105DC0004961200013B5224C22680AB9FFF76EFF23
:105DD000FFF718FB032823D0FFF772FB00B31D4B1E
:105DE0009B68984700281BDBFFF70CFBC0B1FFF74F
:105DF00067FBA8B11B20FFF713FC174901F0A7FEB2
:105E000050B11320FFF7FAFB206058B9FFF74EFF9F
:105E10001248FEF75BFD0DE0FFF70AFC0028F0D109
:105E200002B010BDFFF72CFF00230D4A04210B48E0
:105E3000FEF742FDFFF720FC0028F1D1FFF746FCFA
:105E4000084BDB68019302B0BDE81040184700BF63
:105E5000044B002084812000AC520020D04A002056
:105E6000E55C2000488120002DE9F04F774E89B095
:105E7000337803903BB9764B1B7823B90524204631
:105E800009B0BDE8F08FFFF71BFB0028F6D0714981
:105E90001A20FFF7B9FBFFF7CBFB04460C20FFF7F6
:105EA000ADFB002843D0FFF70BFB81464FF0010804
:105EB000694D6F68FFF7A2FA4946B847674FAB696B
:105EC00087F800800093984700283AD1EB69019346
:105ED0009847002835D1FFF7E9FE337886F800802F
:105EE000DBB20293039B002B3ED14FF006086FF00C
:105EF000030A6FF00F0BFCF7D1FF0490FFF7C0FE11
:105F00000498AAEB00030493FCF7C8FF049BC34268
:105F1000F9D46B699847C0B90090FFF7C7FE0098A5
:105F20003870FFF7C3FE9DF8083033700BE0012195
:105F30000B20FFF75BFB4A4B5B6898470028B2DAFF
:105F40009CE700233B70012499E7FFF7AFFEFCF7C5
:105F5000A5FFABEB00030493FCF7A0FF049BC34237
:105F6000F9D4B8F10108C6D10CB9FFF789FE0A20AF
:105F7000FFF744FBC3B20493FDF714F9FCF78EFF5F
:105F800000278046DFF8E0B0ABEB000BBA46002FED
:105F90004BD1FCF783FF1BEB000F46D5FDF702F951
:105FA000002C38D0AB6848469847FCF777FF6FF075
:105FB0000C031B1A0593FCF771FF059BC342F9D430
:105FC000002CE6D1009B984788B3FCF767FF6FF081
:105FD000140AAAEB000AFCF761FF1AEB000FFAD4CF
:105FE0002B69032107A8984703282AD19DF81E3062
:105FF000049A934225D10125FFF758FE00229DF80F
:1060000008303370154B1A70002F9CD1E4B99542BB
:1060100008BF022433E7039B002BC3D0FCF73EFFED
:10602000104BA3EB0803C342BCD40025E4E7019B5B
:1060300098470028C9D16B6998470028C5D05746B2
:10604000A4E74FF0010AFAE73C4618E76752002040
:1060500068520020AC520020448020006E52002084
:1060600084812000DEFDFFFFB0EFFFFF2DE9F14F3F
:10607000074688461446002A5DD0304B1E685EB144
:106080005068FFF789F901231A464146384601B0A6
:10609000BDE8F04F01F007BF1546DFF8A4A0DFF818
:1060A000A4B0284601F01EFB81466868FFF774F92A
:1060B0000C20FFF7A3FAE8B9B9F1000F03D00121D2
:1060C0001320FFF793FA51461A20FFF79DFA01219A
:1060D0000B20FFF78BFADBF804309847002802DA30
:1060E00001230522D1E701210C20FFF77FFA686820
:1060F00001F016FD4D46002DD3D1204601F0F2FAF5
:1061000005466068FFF748F91320FFF777FA8146E4
:106110003046FFF7A9FE032804460CD002460123AF
:106120004146384601F0BFFE2CB925B12C46012668
:10613000B9F1000FE1D101B0BDE8F08F044B0020B0
:10614000AC5200208481200040F2B1122DE9F347C7
:106150006D4C06462388934200F0D180B3F5D97F79
:1061600004D2002B00F08880002395E040F2E31277
:1061700093422DD040F202229342F5D10023634A8C
:106180001370634A1370624B1B78012B13D8614B59
:106190001A78002A77D1604A1268002A73D11B78D6
:1061A0000BB9FFF76DFD5D4B5B699847002868D11F
:1061B0000122564B1A70554B1B78002B49D0FCF727
:1061C0006DFE574B574A186000231370564A1370E0
:1061D000504BDFF864811B784BBB98F8003033B329
:1061E000FCF75CFE6FF4CC724D4B1B68C01A104478
:1061F00000281CDA494DDFF82C916B69984700287C
:106200004ED099F80030013389F80030464FD5F868
:1062100018A03B7801333B70D04710B1002389F8B8
:10622000003099F80030052B3DD9FFF765FD98F84F
:10623000003073B1394DAB699847002858D0FCF74E
:106240002DFE374B1B68C01A6FF4CC73184400281E
:1062500052DA364D2B6803F580532B60FCF71EFE97
:106260002B68C3F1A003C34288D529683046FFF7E5
:106270008DFD40F202230FE0FCF710FE2B4B18605F
:106280007CE7FFF739FDFCF709FE00F1100130460D
:10629000FFF77CFD40F2B113238002B0BDE8F08728
:1062A00089F80000B2E73B780A2B05D9D04718B926
:1062B000EB6998470028B8D0EB6998470028B6D119
:1062C0001B4B1B788BB13568FCF7E8FD002305F10B
:1062D00014072D1A15F1120F48BF871C00930122D5
:1062E000144B39463046FEF7F3FC40F2E313D3E794
:1062F000EB6998470028A2D1FFF7FEFCA9E7044A02
:10630000137801333EE700BF2E5100206A5200206F
:10631000695200206E520020044B0020448020006F
:10632000004B00206D5200206B520020F04A0020EC
:1063300067520020496120006C52002008B5024BD2
:106340001B689847023008BD3C81200038B50C4BD3
:106350009B689847041E02DA4FF0FF3038BDFFF704
:1063600087F803780546002BF6D10220FFF72CF8BA
:106370000028F1D06878FFF73BF8A01C38BD00BFBB
:106380003C81200070B50220FFF7A4F810B94FF04F
:10639000FF3070BDFFF732F8002505700446FFF7A7
:1063A00031F86070FFF78CF80446FFF7C7FF204410
:1063B0002A2812DCC0F12B00C4B2FFF759F80646B8
:1063C000FFF720F822462946304400F0E7FFFFF7A8
:1063D00019F8204480B2FFF70BF8044B5B6898472C
:1063E000041ED4DBFFF720F8A01C70BD3C81200008
:1063F000014B9B68184700BF3081200070B50446F0
:106400000D4614200121FFF7F1F8034B29462046E1
:10641000BDE870409B6818474881200008B50220FD
:1064200041B9FCF7F7FA0120FCF7FCFA0422044B0F
:106430001A6008BDFCF7F6FA0120FCF7EBFAF5E765
:10644000344B002070B54D780C78FFF711F82A46D0
:1064500003462146BDE870400148FDF70DBE00BF70
:1064600045842000F8B5C1F30A56A6F2FF35132D76
:106470000A460B46044611DC002D2EDB8E462049D1
:1064800029410A4225D04FF4002300262B417344B2
:1064900023EA0103194634462046F8BD332D05DDB5
:1064A000B5F5806F1FD011462046F8BD4FF0FF3183
:1064B000A6F2134621FA06F63042F4D00121C5F1C6
:1064C000330201FA02F2121828BF5B1822EA06060C
:1064D000E0E70028D7D11146E6E7013501F0004397
:1064E00007D00026D6E702460B4600F099F804468E
:1064F000D2E743F07F5343F440130026CAE700BFBE
:10650000FFFF0F002DE9F0438BB004460D46FBF76B
:106510009FFF374B804693F900608946731C0DD06E
:1065200022462B462046294600F0C6FC30B9002200
:1065300000232046294600F0B5FC20B140464946DC
:106540000BB0BDE8F0832B4B0890CDE90245CDE9B7
:1065500004450193DEB94FF06046274F2046294697
:1065600000220023CDE9066700F074FC002837D034
:1065700002230093684600F045F8C8B1089BE3B9D0
:10658000DDE90689404649460BB0BDE8F0834FF08F
:106590000008DFF86C902046294600220023CDE950
:1065A000068900F057FC68B102239E420093E1D1B6
:1065B00000F048FE22230360E0E700F043FE089B62
:1065C0000360DDE70123022E00930BD100F03AFEB9
:1065D00021230360094800F017F8CDE90601CDE753
:1065E00001230093684600F00DF80028F2D1EDE792
:1065F00028450020B0812000FFFFEFC7B4812000B4
:106600000000F0FF0020704700200149704700BFE4
:106610000000F87F81F0004102E000BF83F00043FA
:1066200030B54FEA41044FEA430594EA050F08BF2D
:1066300090EA020F1FBF54EA000C55EA020C7FEAF1
:10664000645C7FEA655C00F0E2804FEA5454D4EB6E
:106650005555B8BF6D420CDD2C4480EA020281EA38
:10666000030382EA000083EA010180EA020281EA70
:106670000303362D88BF30BD11F0004F4FEA0131C2
:106680004FF4801C4CEA113102D0404261EB4101D1
:1066900013F0004F4FEA03334CEA133302D0524257
:1066A00063EB430394EA050F00F0A780A4F1010413
:1066B000D5F1200E0DDB02FA0EFC22FA05F280184D
:1066C00041F1000103FA0EF2801843FA05F3594133
:1066D0000EE0A5F120050EF1200E012A03FA0EFCB2
:1066E00028BF4CF0020C43FA05F3C01851EBE371DC
:1066F00001F0004507D54FF0000EDCF1000C7EEBF9
:1067000000006EEB0101B1F5801F1BD3B1F5001F36
:106710000CD349085FEA30004FEA3C0C04F1010455
:106720004FEA445212F5800F80F09A80BCF1004F7E
:1067300008BF5FEA500C50F1000041EB045141EA00
:10674000050130BD5FEA4C0C404141EB010111F401
:10675000801FA4F10104E9D191F0000F04BF0146AC
:106760000020B1FA81F308BF2033A3F10B03B3F18A
:1067700020020CDA0C3208DD02F1140CC2F10C021A
:1067800001FA0CF021FA02F10CE002F11402D8BF78
:10679000C2F1200C01FA02F120FA0CFCDCBF41EA44
:1067A0000C019040E41AA2BF01EB0451294330BD13
:1067B0006FEA04041F3C1CDA0C340EDC04F11404F0
:1067C000C4F1200220FA04F001FA02F340EA0300C7
:1067D00021FA04F345EA030130BDC4F10C04C4F10D
:1067E000200220FA02F001FA04F340EA03002946ED
:1067F00030BD21FA04F0294630BD94F0000F83F437
:10680000801306BF81F480110134013D4EE77FEA19
:10681000645C18BF7FEA655C29D094EA050F08BF65
:1068200090EA020F05D054EA000C04BF1946104646
:1068300030BD91EA030F1EBF0021002030BD5FEA8A
:10684000545C05D14000494128BF41F0004130BDB2
:1068500014F580043CBF01F5801130BD01F0004506
:1068600045F0FE4141F470014FF0000030BD7FEA79
:10687000645C1ABF194610467FEA655C1CBF0B4674
:10688000024650EA013406BF52EA033591EA030F8B
:1068900041F4002130BD00BF90F0000F04BF002183
:1068A000704730B54FF4806404F132044FF00005B6
:1068B0004FF0000150E700BF90F0000F04BF00212F
:1068C000704730B54FF4806404F1320410F0004595
:1068D00048BF40424FF000013EE700BF42004FEA90
:1068E000E2014FEA31014FEA02701FBF12F07F430D
:1068F00093F07F4F81F06051704792F0000F14BF0A
:1069000093F07F4F704730B54FF4607401F000454D
:1069100021F0004120E700BF50EA010208BF7047A4
:1069200030B54FF000050AE050EA010208BF704799
:1069300030B511F0004502D5404261EB41014FF402
:10694000806404F132045FEA915C3FF4DCAE4FF006
:1069500003025FEADC0C18BF03325FEADC0C18BFED
:10696000033202EBDC02C2F1200300FA03FC20FA3E
:1069700002F001FA03FE40EA0E0021FA02F114448B
:10698000C1E600BF70B54FF0FF0C4CF4E06C1CEAA0
:1069900011541DBF1CEA135594EA0C0F95EA0C0F15
:1069A00000F0DEF82C4481EA030621EA4C5123EA88
:1069B0004C5350EA013518BF52EA033541F48011B7
:1069C00043F4801338D0A0FB02CE4FF00005E1FB6A
:1069D00002E506F00042E0FB03E54FF00006E1FBB4
:1069E00003569CF0000F18BF4EF0010EA4F1FF04F7
:1069F000B6F5007F64F5407404D25FEA4E0E6D4137
:106A000046EB060642EAC62141EA55514FEAC52047
:106A100040EA5E504FEACE2EB4F1FD0C88BFBCF5C3
:106A2000E06F1ED8BEF1004F08BF5FEA500E50F174
:106A3000000041EB045170BD06F0004646EA01013A
:106A400040EA020081EA0301B4EB5C04C2BFD4EB6C
:106A50000C0541EA045170BD41F480114FF0000E65
:106A6000013C00F3AB8014F1360FDEBF002001F0D3
:106A7000004170BDC4F10004203C35DA0C341BDC4D
:106A800004F11404C4F1200500FA05F320FA04F01F
:106A900001FA05F240EA020001F0004221F0004153
:106AA00010EBD37021FA04F642EB06015EEA430EC6
:106AB00008BF20EAD37070BDC4F10C04C4F12005F6
:106AC00000FA04F320FA05F001FA04F240EA0200A9
:106AD00001F0004110EBD37041F100015EEA430E7A
:106AE00008BF20EAD37070BDC4F1200500FA05F29A
:106AF0004EEA020E20FA04F301FA05F243EA020319
:106B000021FA04F001F0004121FA04F220EA020027
:106B100000EBD3705EEA430E08BF20EAD37070BD6D
:106B200094F0000F0FD101F00046400041EB01014D
:106B300011F4801F08BF013CF7D041EA060195F02F
:106B4000000F18BF704703F00046520043EB0303E9
:106B500013F4801F08BF013DF7D043EA06037047D6
:106B600094EA0C0F0CEA135518BF95EA0C0F0CD0E1
:106B700050EA410618BF52EA4306D1D181EA030127
:106B800001F000414FF0000070BD50EA410606BF21
:106B90001046194652EA430619D094EA0C0F02D166
:106BA00050EA013613D195EA0C0F05D152EA0336AB
:106BB0001CBF104619460AD181EA030101F00041C9
:106BC00041F0FE4141F470014FF0000070BD41F012
:106BD000FE4141F4780170BD70B54FF0FF0C4CF4EC
:106BE000E06C1CEA11541DBF1CEA135594EA0C0F0B
:106BF00095EA0C0F00F0A7F8A4EB050481EA030E58
:106C000052EA03354FEA013100F088804FEA03333E
:106C10004FF0805545EA131343EA12634FEA02220C
:106C200045EA111545EA10654FEA00260EF00041CD
:106C30009D4208BF964244F1FD0404F5407402D21F
:106C40005B084FEA3202B61A65EB03055B084FEAB0
:106C500032024FF480104FF4002CB6EB020E75EBAD
:106C6000030E22BFB61A754640EA0C005B084FEAD5
:106C70003202B6EB020E75EB030E22BFB61A754652
:106C800040EA5C005B084FEA3202B6EB020E75EB9D
:106C9000030E22BFB61A754640EA9C005B084FEA15
:106CA0003202B6EB020E75EB030E22BFB61A754622
:106CB00040EADC0055EA060E18D04FEA051545EA11
:106CC00016754FEA06164FEAC30343EA52734FEABA
:106CD000C2025FEA1C1CC0D111F4801F0BD141EA33
:106CE00000014FF000004FF0004CB6E711F4801F98
:106CF00004BF01430020B4F1FD0C88BFBCF5E06F78
:106D00003FF6AFAEB5EB030C04BFB6EB020C5FEA87
:106D1000500C50F1000041EB045170BD0EF0004EDC
:106D20004EEA113114EB5C04C2BFD4EB0C0541EA0E
:106D3000045170BD41F480114FF0000E013C90E60B
:106D400045EA060E8DE60CEA135594EA0C0F08BFCF
:106D500095EA0C0F3FF43BAF94EA0C0F0AD150EACE
:106D600001347FF434AF95EA0C0F7FF425AF104661
:106D700019462CE795EA0C0F06D152EA03353FF489
:106D8000FDAE1046194622E750EA410618BF52EA06
:106D900043067FF4C5AE50EA41047FF40DAF52EADA
:106DA00043057FF4EBAE12E74FF0FF3C06E000BF77
:106DB0004FF0010C02E000BF4FF0010C4DF804CD84
:106DC0004FEA410C7FEA6C5C4FEA430C18BF7FEA44
:106DD0006C5C1BD001B050EA410C0CBF52EA430C72
:106DE00091EA030F02BF90EA020F0020704710F1F2
:106DF000000F91EA030F58BF994208BF90422CBF81
:106E0000D8176FEAE37040F0010070474FEA410C79
:106E10007FEA6C5C02D150EA013C07D14FEA430C97
:106E20007FEA6C5CD6D152EA033CD3D05DF8040B08
:106E3000704700BF8446104662468C46194663463A
:106E400000E000BF01B5FFF7B7FF002848BF10F111
:106E5000000F01BD4DF808EDFFF7F4FF0CBF012056
:106E600000205DF808FB00BF4DF808EDFFF7EAFFD2
:106E700034BF012000205DF808FB00BF4DF808ED8D
:106E8000FFF7E0FF94BF012000205DF808FB00BF82
:106E90004DF808EDFFF7CEFF94BF012000205DF80C
:106EA00008FB00BF4DF808EDFFF7C4FF34BF012019
:106EB00000205DF808FB00BF4FEA410C7FEA6C5CE4
:106EC00002D150EA013C0AD14FEA430C7FEA6C5CE4
:106ED00002D152EA033C02D14FF0000070474FF05C
:106EE000010070474FEA410212F5001215D211D588
:106EF0006FF47873B3EB625212D94FEAC12343F0B7
:106F0000004343EA505311F0004F23FA02F018BF38
:106F1000404270474FF00000704750EA013005D101
:106F200011F0004008BF6FF0004070474FF00000C4
:106F3000704700BF53B94AB9002908BF00281CBFD9
:106F40004FF0FF314FF0FF3000F07AB9ADF1080C8F
:106F50006DE904CE00F006F8DDF804E0DDE9022377
:106F600004B070472DE9F0478C460E460446089D54
:106F7000002B50D18A4217466CD9B2FA82FEBEF17C
:106F8000000F0BD0CEF1200C01FA0EF620FA0CFC0B
:106F900002FA0EF74CEA060C00FA0EF43A0CBCFBAF
:106FA000F2F9BBB202FB19CC09FB03FA4FEA144811
:106FB00048EA0C46B2450AD9F61909F1FF3180F0CA
:106FC0002581B24540F22281A9F102093E44A6EB97
:106FD0000A06B6FBF2F002FB106600FB03F3A4B254
:106FE00044EA0644A34209D9E41900F1FF3280F0D3
:106FF0000B81A34240F2088102383C440021E41A8C
:1070000040EA0940002D62D0002324FA0EF42C60DF
:107010006B60BDE8F0878B4207D9002D55D0002169
:1070200085E841000846BDE8F087B3FA83F10029FE
:1070300040F08F80B34202D3824200F2FC80841A77
:1070400066EB03060120B446002D40D085E8101001
:10705000BDE8F08712B90127B7FBF2F7B7FA87FE50
:10706000BEF1000F35D10121F61B4FEA174C1FFA74
:1070700087F8B6FBFCF20CFB126608FB02F0230C4F
:1070800043EA0646B04207D9F61902F1FF3302D2AD
:10709000B04200F2D2801A46361AB6FBFCF00CFB66
:1070A000106608FB00F8A3B243EA0644A04507D9DE
:1070B000E41900F1FF3302D2A04500F2B98018466E
:1070C000A4EB080440EA02409CE729462846BDE8B4
:1070D000F08707FA0EF7CEF1200326FA03F24FEA03
:1070E000174CB2FBFCF11FFA87F80CFB112206FAD1
:1070F0000EF620FA03F301FB08F933431E0C46EAAF
:107100000246B14500FA0EF409D9F61901F1FF3231
:1071100080F08C80B14540F2898002393E44A6EB74
:107120000906B6FBFCF00CFB106200FB08F99EB2EE
:1071300046EA0246B14507D9F61900F1FF3371D28C
:10714000B1456FD902383E44A6EB090640EA014139
:107150008FE7C1F1200722FA07F88B4048EA0303C2
:1071600026FA07F44FEA134EB4FBFEF91FFA83FC2C
:107170000EFB19448E4020FA07F809FB0CFA48EA86
:1071800006084FEA184646EA0444A24502FA01F20C
:1071900000FA01F608D9E41809F1FF3044D2A245FB
:1071A00042D9A9F102091C44A4EB0A04B4FBFEF085
:1071B0000EFB104400FB0CFC1FFA88F848EA04445C
:1071C000A44507D9E41800F1FF3E29D2A44527D9E8
:1071D00002381C4440EA0940A0FB0289A4EB0C0CD5
:1071E000CC45C246CE4615D312D055B1B6EB0A03F4
:1071F0006CEB0E0606FA07F7CB401F43CE402F601C
:107200006E600021BDE8F0871046F7E68946DEE6AD
:107210004645EAD2B8EB020A69EB030E0138E4E70F
:107220007046D7E718468FE78146BDE7114676E7F7
:1072300002383C4444E7084606E7023A3E442BE75E
:10724000704700BF014B1868704700BF40400020E6
:10725000032A70B422D940EA01039B0711D00378B6
:107260000C78A3421DD10A44013105E010F8013F1A
:1072700011F8014BA34214D19142F7D1002070BC08
:1072800070470D6806680C46AE42034601F10401E2
:1072900000F1040008D1043A032AF2D8002ADED112
:1072A000ECE7181B70BC704721461846D7E700BFB3
:1072B000844641EA000313F0030349D1403A23D343
:1072C0000B6803604B6843608B688360CB68C36066
:1072D0000B6903614B6943618B698361CB69C3614E
:1072E0000B6A03624B6A43628B6A8362CB6AC36236
:1072F0000B6B03634B6B43638B6B8363CB6BC3631E
:1073000040304031403ADBD230320BD30B6803605F
:107310004B6843608B688360CB68C360103010316A
:10732000103AF3D20C3205D351F8043B40F8043B39
:10733000043AF9D2043208D0D2071CBF11F8013B3D
:1073400000F8013B01D30B8803806046704700BF03
:10735000082A13D38B07B1D010F00303AED0C3F1CA
:107360000403D21ADB071CBF11F8013B00F8013BF4
:10737000A4D331F8023B20F8023B9FE7043AD9D36B
:10738000013A11F8013B00F8013BF9D20B78037088
:107390004B7843708B7883706046704770B4860773
:1073A00046D0541E002A41D0CAB2034602E014F16E
:1073B000FF343BD303F8012B9D07F8D1032C2ED9C2
:1073C000CDB245EA05250F2C45EA054519D92646D3
:1073D00003F11002103E0F2E42F8105C42F80C5CD4
:1073E00042F8085C42F8045C02F11002F2D8A4F101
:1073F000100222F00F0204F00F041032032C134489
:107400000DD91E462246043A032A46F8045BFAD8F0
:10741000221F22F003020432134404F003042CB1AF
:10742000C9B21C4403F8011B9C42FBD170BC7047DD
:1074300014460346C2E700BFFEE708B5FBF7FCF9B8
:10744000F7B500240646254627463046FBF7E2FA04
:107450000197019B9D4215DC3046FBF7E3FAC5F529
:10746000C8750197019B9D4211DC0134B4F5487F3A
:1074700001D103B0F0BDB4F5C87FCCBFC4F54875E9
:107480002546E2E700BF019B01330193E1E700BF1E
:10749000019B01330193E5E701207047FBF7DABB5D
:1074A000FBF782BC70470020FBF75EBD0120FBF7B5
:1074B0005BBD0020FBF70ABF0120FBF707BF0220DE
:1074C000FBF704BF0320FBF701BF10B50C46FCF728
:1074D00027F92046BDE81040FCF754B910B5044622
:1074E000C1B20020FBF744FE204610BD70B5054632
:1074F00004464618601B0CB1237803B970BDB44232
:10750000FCD018460134FFF7E9FFF3E738B505462C
:10751000002415F8010B20B1FFF7E0FF0134002D26
:10752000F7D10A20FFF7DAFF204638BD0020704768
:107530000120704710B50446302200210E20FBF7D1
:107540001FFF84B1012C0CD142F210730011A0F284
:107550008E5058432A2390FBF3F000F5C3402830A7
:1075600010BD4FF0004010BD002070470120704753
:1075700010B50446302200210F20FBF701FF5CB15B
:10758000012C07D140F6F253584347F6F07390FBB5
:10759000F3F010BD4FF0004010BD08B5084612B121
:1075A0001146FFF7A3FF002008BD10B5041F54F8D3
:1075B000040F00B910BD0021FDF766FBF7E7704727
:1075C00010B5044600F012F82046BDE81040FDF763
:1075D0000DBAC068B0FA80F040097047837BDB07C2
:1075E00001D5FDF745BA7047FFF75CBF10B54160A4
:1075F0000446FBF725FC206010BD10B50446FBF7E0
:107600001FFC2368C3F1010303446068834294BFF5
:107610000020012010BD0023013A01600271437176
:107620008371704710B5427983790479D31A34EAAB
:10763000030308D003689954437902790133134056
:107640004371012010BD002010BD8379427901797A
:10765000D21A0A421FBF0268D25C01330B401ABF24
:10766000837110464FF0FF3070470023036070476E
:1076700000687047006808B1036803B9704718468E
:10768000FAE7036810B583B10022994209D10B686B
:107690002AB9036000230B6010BD2346F5E7136091
:1076A000F8E71C681A46002CF7D110BD38B505461E
:1076B000FFF7E7FF00230B60FFF7DCFF08B9296045
:1076C00038BD016038BD38B50446FFF7DAFF0368FE
:1076D0000B60216038BD0368002003B9704701309A
:1076E0001B68FAE700B10068704710B5044642888D
:1076F00000214068FFF752FE23886288A0685A4341
:10770000BDE810400021FFF749BE002310B54188B5
:107710008B4201DB002010BD4268D418D25C32B924
:10772000012222700288806803FB020010BD013331
:10773000EEE7002330B582684488A34201DBFF20D6
:1077400030BD8A4207D14168CA5C0AB1013ACA54C5
:107750004268D05C30BD058801332A44EDE7826879
:107760008A4208D84388008800FB032081422CBF4E
:1077700000200120704700207047831C0020023346
:1077800013F8042C02B9704713F8032C1044F6E7E1
:10779000072B2DE9F8430746884615461C4607DCAB
:1077A0001A4629464046FDF711FC3870BDE8F883BB
:1077B0004FEAE309AAB1002608EB06000822294691
:1077C000FDF704FCB85501364E45F5D114F007021B
:1077D00017D0294608EB0600FDF7F8FBB855BDE8C1
:1077E000F88318F805307B550135A945F9D114F017
:1077F000070206D0002108EB0900FDF7E7FB07F8B8
:107800000900BDE8F8832DE9F743FDF731FE044692
:107810000220FDF7D9FD20B90025284603B0BDE8B8
:10782000F0836378207800EB032080B2FDF7C0FC82
:1078300005460028F0D0FDF71BFE8046287B10F09F
:10784000070318BF012303EBD000FDF7BDFD00289F
:10785000E2D00026B146AC68023414F8023C002B9A
:10786000DBD0192B14F8017C06F0070208EBE601C7
:107870000BD901A83B46FFF78BFF01A914F8020CB6
:10788000FDF7C2FE3E440234E7E73B4601A8ADF8EF
:107890000490FFF77DFF9DF805109DF8043014F863
:1078A000020C43EA0121FDF7A1FEEBE7072B2DE9CE
:1078B000F0410FDC1478C1F11001CB1A04FA03F384
:1078C0000178C3F307220A43417802700B434370E7
:1078D000BDE8F081DC1069B302F1FF3E0519C1F18A
:1078E000080C854216D113F007033CD0125DC3F19A
:1078F000080001440A41D2B2C3F1100302FA03F3B3
:107900002978C3F307220A432A706A7813436B70FD
:10791000BDE8F0811EF8016F90F8008006FA0CF6C1
:10792000C6F3072747EA0807077010F8017F3E43B0
:107930000670D6E7555C455401318C42FAD113F0FC
:10794000070310D0125DC3F108052A41C3F11003EB
:10795000055D02FA03F3C3F307222A430119025516
:107960004A7813434B70BDE8F0812DE9F743047B5F
:10797000054614F0070318BF012303EBD404A01C31
:10798000FDF7A8FDA8B1FDF739FDAB880370AB8802
:107990001B0A4370FDF732FD871C22460021384642
:1079A000FFF7FCFCAC680025023414F8020C18B98F
:1079B000012003B0BDE8F083192814F8016C07EB2F
:1079C000E50805F007090AD9FDF72AFE3346024605
:1079D00049464046FFF76AFF35440234E5E7FDF7C4
:1079E0000DFE8DF80400000A8DF80500334601AA4B
:1079F000EEE77047F7B50F46FDF73AFD06880446F7
:107A0000FDF700FDB3000233834203D800250234A2
:107A1000B54201DB03B0F0BD54F8041B38460191B8
:107A20000A0C89B2FDF76EFB0135F1E7FDF7ACBB3F
:107A300038B50D46FDF7BCFB044620B185602846ED
:107A4000FDF79CFB207338BD83695B6803B1184761
:107A5000704700F020B810B504461B20FDF7D4FD98
:107A60002046BDE81040FDF7EDBB43695B6803B1FC
:107A70001847704713B504461A20FDF7D1FD01469B
:107A800001A800F061F863691B6813B101A92046E1
:107A9000984702B010BD00F014B810B5FDF736FCE1
:107AA000FDF756FDFDF71CFBFFF7C0FFBDE81040DA
:107AB0004FF4E1234FF4F0524FF400710220FDF730
:107AC000F7BAFDF76FBBFDF7FFBB03691B6803B196
:107AD0001847704703695B6803B1184770470EF099
